{"abi":[{"type":"function","name":"send","inputs":[{"name":"recipients","type":"address[]","internalType":"address payable[]"},{"name":"amounts","type":"uint256[]","internalType":"uint256[]"}],"outputs":[],"stateMutability":"payable"}],"bytecode":{"object":"0x6080604052348015600f57600080fd5b506102c58061001f6000396000f3fe60806040526004361061001e5760003560e01c8063a645ff5f14610023575b600080fd5b6100366100313660046101dd565b610038565b005b8281146100a35760405162461bcd60e51b815260206004820152602e60248201527f526563697069656e747320616e6420416d6f756e74732073686f756c6420686160448201526d0ecca40e6c2daca40d8cadccee8d60931b60648201526084015b60405180910390fd5b60005b8381101561018a5760008585838181106100c2576100c2610249565b90506020020160208101906100d7919061025f565b6001600160a01b03168484848181106100f2576100f2610249565b9050602002013560405160006040518083038185875af1925050503d8060008114610139576040519150601f19603f3d011682016040523d82523d6000602084013e61013e565b606091505b50509050806101815760405162461bcd60e51b815260206004820152600f60248201526e151c985b9cd9995c8819985a5b1959608a1b604482015260640161009a565b506001016100a6565b5050505050565b60008083601f8401126101a357600080fd5b50813567ffffffffffffffff8111156101bb57600080fd5b6020830191508360208260051b85010111156101d657600080fd5b9250929050565b600080600080604085870312156101f357600080fd5b843567ffffffffffffffff8082111561020b57600080fd5b61021788838901610191565b9096509450602087013591508082111561023057600080fd5b5061023d87828801610191565b95989497509550505050565b634e487b7160e01b600052603260045260246000fd5b60006020828403121561027157600080fd5b81356001600160a01b038116811461028857600080fd5b939250505056fea2646970667358221220a72e1d94f7720175c02f667f4d1506c0bd2f5c076e67dee7933787fc1d53466c64736f6c63430008190033","linkReferences":{}},"methodIdentifiers":{"send(address[],uint256[])":"a645ff5f"},"id":23}