{
	"foundry/src/Multisend.sol": {
		"Multisend": {
			"abi": [
				{
					"inputs": [
						{
							"internalType": "address payable[]",
							"name": "recipients",
							"type": "address[]"
						},
						{
							"internalType": "uint256[]",
							"name": "amounts",
							"type": "uint256[]"
						}
					],
					"name": "send",
					"outputs": [],
					"stateMutability": "payable",
					"type": "function"
				}
			],
			"devdoc": {
				"kind": "dev",
				"methods": {},
				"version": 1
			},
			"evm": {
				"assembly": "    /* \"foundry/src/Multisend.sol\":60:548  contract Multisend{... */\n  mstore(0x40, 0x80)\n  callvalue\n  dup1\n  iszero\n  tag_1\n  jumpi\n  0x00\n  dup1\n  revert\ntag_1:\n  pop\n  dataSize(sub_0)\n  dup1\n  dataOffset(sub_0)\n  0x00\n  codecopy\n  0x00\n  return\nstop\n\nsub_0: assembly {\n        /* \"foundry/src/Multisend.sol\":60:548  contract Multisend{... */\n      mstore(0x40, 0x80)\n      jumpi(tag_1, lt(calldatasize, 0x04))\n      shr(0xe0, calldataload(0x00))\n      dup1\n      0xa645ff5f\n      eq\n      tag_2\n      jumpi\n    tag_1:\n      0x00\n      dup1\n      revert\n        /* \"foundry/src/Multisend.sol\":85:545  function send(... */\n    tag_2:\n      tag_3\n      0x04\n      dup1\n      calldatasize\n      sub\n      dup2\n      add\n      swap1\n      tag_4\n      swap2\n      swap1\n      tag_5\n      jump\t// in\n    tag_4:\n      tag_6\n      jump\t// in\n    tag_3:\n      stop\n    tag_6:\n        /* \"foundry/src/Multisend.sol\":263:270  amounts */\n      dup2\n      dup2\n        /* \"foundry/src/Multisend.sol\":263:277  amounts.length */\n      swap1\n      pop\n        /* \"foundry/src/Multisend.sol\":242:252  recipients */\n      dup5\n      dup5\n        /* \"foundry/src/Multisend.sol\":242:259  recipients.length */\n      swap1\n      pop\n        /* \"foundry/src/Multisend.sol\":242:277  recipients.length == amounts.length */\n      eq\n        /* \"foundry/src/Multisend.sol\":220:351  require(... */\n      tag_8\n      jumpi\n      mload(0x40)\n      0x08c379a000000000000000000000000000000000000000000000000000000000\n      dup2\n      mstore\n      0x04\n      add\n      tag_9\n      swap1\n      tag_10\n      jump\t// in\n    tag_9:\n      mload(0x40)\n      dup1\n      swap2\n      sub\n      swap1\n      revert\n    tag_8:\n        /* \"foundry/src/Multisend.sol\":368:374  uint i */\n      0x00\n        /* \"foundry/src/Multisend.sol\":364:538  for(uint i=0;i<recipients.length;i++){... */\n    tag_11:\n        /* \"foundry/src/Multisend.sol\":379:389  recipients */\n      dup5\n      dup5\n        /* \"foundry/src/Multisend.sol\":379:396  recipients.length */\n      swap1\n      pop\n        /* \"foundry/src/Multisend.sol\":377:378  i */\n      dup2\n        /* \"foundry/src/Multisend.sol\":377:396  i<recipients.length */\n      lt\n        /* \"foundry/src/Multisend.sol\":364:538  for(uint i=0;i<recipients.length;i++){... */\n      iszero\n      tag_12\n      jumpi\n        /* \"foundry/src/Multisend.sol\":417:429  bool success */\n      0x00\n        /* \"foundry/src/Multisend.sol\":435:445  recipients */\n      dup6\n      dup6\n        /* \"foundry/src/Multisend.sol\":446:447  i */\n      dup4\n        /* \"foundry/src/Multisend.sol\":435:448  recipients[i] */\n      dup2\n      dup2\n      lt\n      tag_14\n      jumpi\n      tag_15\n      tag_16\n      jump\t// in\n    tag_15:\n    tag_14:\n      swap1\n      pop\n      0x20\n      mul\n      add\n      0x20\n      dup2\n      add\n      swap1\n      tag_17\n      swap2\n      swap1\n      tag_18\n      jump\t// in\n    tag_17:\n        /* \"foundry/src/Multisend.sol\":435:453  recipients[i].call */\n      0xffffffffffffffffffffffffffffffffffffffff\n      and\n        /* \"foundry/src/Multisend.sol\":461:468  amounts */\n      dup5\n      dup5\n        /* \"foundry/src/Multisend.sol\":469:470  i */\n      dup5\n        /* \"foundry/src/Multisend.sol\":461:471  amounts[i] */\n      dup2\n      dup2\n      lt\n      tag_19\n      jumpi\n      tag_20\n      tag_16\n      jump\t// in\n    tag_20:\n    tag_19:\n      swap1\n      pop\n      0x20\n      mul\n      add\n      calldataload\n        /* \"foundry/src/Multisend.sol\":435:476  recipients[i].call{value: amounts[i]}(\"\") */\n      mload(0x40)\n      tag_21\n      swap1\n      tag_22\n      jump\t// in\n    tag_21:\n      0x00\n      mload(0x40)\n      dup1\n      dup4\n      sub\n      dup2\n      dup6\n      dup8\n      gas\n      call\n      swap3\n      pop\n      pop\n      pop\n      returndatasize\n      dup1\n      0x00\n      dup2\n      eq\n      tag_25\n      jumpi\n      mload(0x40)\n      swap2\n      pop\n      and(add(returndatasize, 0x3f), not(0x1f))\n      dup3\n      add\n      0x40\n      mstore\n      returndatasize\n      dup3\n      mstore\n      returndatasize\n      0x00\n      0x20\n      dup5\n      add\n      returndatacopy\n      jump(tag_24)\n    tag_25:\n      0x60\n      swap2\n      pop\n    tag_24:\n      pop\n        /* \"foundry/src/Multisend.sol\":416:476  (bool success, ) = recipients[i].call{value: amounts[i]}(\"\") */\n      pop\n      swap1\n      pop\n        /* \"foundry/src/Multisend.sol\":499:506  success */\n      dup1\n        /* \"foundry/src/Multisend.sol\":491:526  require(success, \"Transfer failed\") */\n      tag_26\n      jumpi\n      mload(0x40)\n      0x08c379a000000000000000000000000000000000000000000000000000000000\n      dup2\n      mstore\n      0x04\n      add\n      tag_27\n      swap1\n      tag_28\n      jump\t// in\n    tag_27:\n      mload(0x40)\n      dup1\n      swap2\n      sub\n      swap1\n      revert\n    tag_26:\n        /* \"foundry/src/Multisend.sol\":401:538  {... */\n      pop\n        /* \"foundry/src/Multisend.sol\":397:400  i++ */\n      dup1\n      dup1\n      0x01\n      add\n      swap2\n      pop\n      pop\n        /* \"foundry/src/Multisend.sol\":364:538  for(uint i=0;i<recipients.length;i++){... */\n      jump(tag_11)\n    tag_12:\n      pop\n        /* \"foundry/src/Multisend.sol\":85:545  function send(... */\n      pop\n      pop\n      pop\n      pop\n      jump\t// out\n        /* \"#utility.yul\":88:205   */\n    tag_30:\n        /* \"#utility.yul\":197:198   */\n      0x00\n        /* \"#utility.yul\":194:195   */\n      dup1\n        /* \"#utility.yul\":187:199   */\n      revert\n        /* \"#utility.yul\":211:328   */\n    tag_31:\n        /* \"#utility.yul\":320:321   */\n      0x00\n        /* \"#utility.yul\":317:318   */\n      dup1\n        /* \"#utility.yul\":310:322   */\n      revert\n        /* \"#utility.yul\":334:451   */\n    tag_32:\n        /* \"#utility.yul\":443:444   */\n      0x00\n        /* \"#utility.yul\":440:441   */\n      dup1\n        /* \"#utility.yul\":433:445   */\n      revert\n        /* \"#utility.yul\":457:574   */\n    tag_33:\n        /* \"#utility.yul\":566:567   */\n      0x00\n        /* \"#utility.yul\":563:564   */\n      dup1\n        /* \"#utility.yul\":556:568   */\n      revert\n        /* \"#utility.yul\":580:697   */\n    tag_34:\n        /* \"#utility.yul\":689:690   */\n      0x00\n        /* \"#utility.yul\":686:687   */\n      dup1\n        /* \"#utility.yul\":679:691   */\n      revert\n        /* \"#utility.yul\":728:1304   */\n    tag_35:\n        /* \"#utility.yul\":809:817   */\n      0x00\n        /* \"#utility.yul\":819:825   */\n      dup1\n        /* \"#utility.yul\":869:872   */\n      dup4\n        /* \"#utility.yul\":862:866   */\n      0x1f\n        /* \"#utility.yul\":854:860   */\n      dup5\n        /* \"#utility.yul\":850:867   */\n      add\n        /* \"#utility.yul\":846:873   */\n      slt\n        /* \"#utility.yul\":836:958   */\n      tag_57\n      jumpi\n        /* \"#utility.yul\":877:956   */\n      tag_58\n      tag_32\n      jump\t// in\n    tag_58:\n        /* \"#utility.yul\":836:958   */\n    tag_57:\n        /* \"#utility.yul\":990:996   */\n      dup3\n        /* \"#utility.yul\":977:997   */\n      calldataload\n        /* \"#utility.yul\":967:997   */\n      swap1\n      pop\n        /* \"#utility.yul\":1020:1038   */\n      0xffffffffffffffff\n        /* \"#utility.yul\":1012:1018   */\n      dup2\n        /* \"#utility.yul\":1009:1039   */\n      gt\n        /* \"#utility.yul\":1006:1123   */\n      iszero\n      tag_59\n      jumpi\n        /* \"#utility.yul\":1042:1121   */\n      tag_60\n      tag_33\n      jump\t// in\n    tag_60:\n        /* \"#utility.yul\":1006:1123   */\n    tag_59:\n        /* \"#utility.yul\":1156:1160   */\n      0x20\n        /* \"#utility.yul\":1148:1154   */\n      dup4\n        /* \"#utility.yul\":1144:1161   */\n      add\n        /* \"#utility.yul\":1132:1161   */\n      swap2\n      pop\n        /* \"#utility.yul\":1210:1213   */\n      dup4\n        /* \"#utility.yul\":1202:1206   */\n      0x20\n        /* \"#utility.yul\":1194:1200   */\n      dup3\n        /* \"#utility.yul\":1190:1207   */\n      mul\n        /* \"#utility.yul\":1180:1188   */\n      dup4\n        /* \"#utility.yul\":1176:1208   */\n      add\n        /* \"#utility.yul\":1173:1214   */\n      gt\n        /* \"#utility.yul\":1170:1298   */\n      iszero\n      tag_61\n      jumpi\n        /* \"#utility.yul\":1217:1296   */\n      tag_62\n      tag_34\n      jump\t// in\n    tag_62:\n        /* \"#utility.yul\":1170:1298   */\n    tag_61:\n        /* \"#utility.yul\":728:1304   */\n      swap3\n      pop\n      swap3\n      swap1\n      pop\n      jump\t// out\n        /* \"#utility.yul\":1327:1895   */\n    tag_36:\n        /* \"#utility.yul\":1400:1408   */\n      0x00\n        /* \"#utility.yul\":1410:1416   */\n      dup1\n        /* \"#utility.yul\":1460:1463   */\n      dup4\n        /* \"#utility.yul\":1453:1457   */\n      0x1f\n        /* \"#utility.yul\":1445:1451   */\n      dup5\n        /* \"#utility.yul\":1441:1458   */\n      add\n        /* \"#utility.yul\":1437:1464   */\n      slt\n        /* \"#utility.yul\":1427:1549   */\n      tag_64\n      jumpi\n        /* \"#utility.yul\":1468:1547   */\n      tag_65\n      tag_32\n      jump\t// in\n    tag_65:\n        /* \"#utility.yul\":1427:1549   */\n    tag_64:\n        /* \"#utility.yul\":1581:1587   */\n      dup3\n        /* \"#utility.yul\":1568:1588   */\n      calldataload\n        /* \"#utility.yul\":1558:1588   */\n      swap1\n      pop\n        /* \"#utility.yul\":1611:1629   */\n      0xffffffffffffffff\n        /* \"#utility.yul\":1603:1609   */\n      dup2\n        /* \"#utility.yul\":1600:1630   */\n      gt\n        /* \"#utility.yul\":1597:1714   */\n      iszero\n      tag_66\n      jumpi\n        /* \"#utility.yul\":1633:1712   */\n      tag_67\n      tag_33\n      jump\t// in\n    tag_67:\n        /* \"#utility.yul\":1597:1714   */\n    tag_66:\n        /* \"#utility.yul\":1747:1751   */\n      0x20\n        /* \"#utility.yul\":1739:1745   */\n      dup4\n        /* \"#utility.yul\":1735:1752   */\n      add\n        /* \"#utility.yul\":1723:1752   */\n      swap2\n      pop\n        /* \"#utility.yul\":1801:1804   */\n      dup4\n        /* \"#utility.yul\":1793:1797   */\n      0x20\n        /* \"#utility.yul\":1785:1791   */\n      dup3\n        /* \"#utility.yul\":1781:1798   */\n      mul\n        /* \"#utility.yul\":1771:1779   */\n      dup4\n        /* \"#utility.yul\":1767:1799   */\n      add\n        /* \"#utility.yul\":1764:1805   */\n      gt\n        /* \"#utility.yul\":1761:1889   */\n      iszero\n      tag_68\n      jumpi\n        /* \"#utility.yul\":1808:1887   */\n      tag_69\n      tag_34\n      jump\t// in\n    tag_69:\n        /* \"#utility.yul\":1761:1889   */\n    tag_68:\n        /* \"#utility.yul\":1327:1895   */\n      swap3\n      pop\n      swap3\n      swap1\n      pop\n      jump\t// out\n        /* \"#utility.yul\":1901:2851   */\n    tag_5:\n        /* \"#utility.yul\":2031:2037   */\n      0x00\n        /* \"#utility.yul\":2039:2045   */\n      dup1\n        /* \"#utility.yul\":2047:2053   */\n      0x00\n        /* \"#utility.yul\":2055:2061   */\n      dup1\n        /* \"#utility.yul\":2104:2106   */\n      0x40\n        /* \"#utility.yul\":2092:2101   */\n      dup6\n        /* \"#utility.yul\":2083:2090   */\n      dup8\n        /* \"#utility.yul\":2079:2102   */\n      sub\n        /* \"#utility.yul\":2075:2107   */\n      slt\n        /* \"#utility.yul\":2072:2191   */\n      iszero\n      tag_71\n      jumpi\n        /* \"#utility.yul\":2110:2189   */\n      tag_72\n      tag_30\n      jump\t// in\n    tag_72:\n        /* \"#utility.yul\":2072:2191   */\n    tag_71:\n        /* \"#utility.yul\":2258:2259   */\n      0x00\n        /* \"#utility.yul\":2247:2256   */\n      dup6\n        /* \"#utility.yul\":2243:2260   */\n      add\n        /* \"#utility.yul\":2230:2261   */\n      calldataload\n        /* \"#utility.yul\":2288:2306   */\n      0xffffffffffffffff\n        /* \"#utility.yul\":2280:2286   */\n      dup2\n        /* \"#utility.yul\":2277:2307   */\n      gt\n        /* \"#utility.yul\":2274:2391   */\n      iszero\n      tag_73\n      jumpi\n        /* \"#utility.yul\":2310:2389   */\n      tag_74\n      tag_31\n      jump\t// in\n    tag_74:\n        /* \"#utility.yul\":2274:2391   */\n    tag_73:\n        /* \"#utility.yul\":2423:2511   */\n      tag_75\n        /* \"#utility.yul\":2503:2510   */\n      dup8\n        /* \"#utility.yul\":2494:2500   */\n      dup3\n        /* \"#utility.yul\":2483:2492   */\n      dup9\n        /* \"#utility.yul\":2479:2501   */\n      add\n        /* \"#utility.yul\":2423:2511   */\n      tag_35\n      jump\t// in\n    tag_75:\n        /* \"#utility.yul\":2405:2511   */\n      swap5\n      pop\n      swap5\n      pop\n        /* \"#utility.yul\":2201:2521   */\n      pop\n        /* \"#utility.yul\":2588:2590   */\n      0x20\n        /* \"#utility.yul\":2577:2586   */\n      dup6\n        /* \"#utility.yul\":2573:2591   */\n      add\n        /* \"#utility.yul\":2560:2592   */\n      calldataload\n        /* \"#utility.yul\":2619:2637   */\n      0xffffffffffffffff\n        /* \"#utility.yul\":2611:2617   */\n      dup2\n        /* \"#utility.yul\":2608:2638   */\n      gt\n        /* \"#utility.yul\":2605:2722   */\n      iszero\n      tag_76\n      jumpi\n        /* \"#utility.yul\":2641:2720   */\n      tag_77\n      tag_31\n      jump\t// in\n    tag_77:\n        /* \"#utility.yul\":2605:2722   */\n    tag_76:\n        /* \"#utility.yul\":2754:2834   */\n      tag_78\n        /* \"#utility.yul\":2826:2833   */\n      dup8\n        /* \"#utility.yul\":2817:2823   */\n      dup3\n        /* \"#utility.yul\":2806:2815   */\n      dup9\n        /* \"#utility.yul\":2802:2824   */\n      add\n        /* \"#utility.yul\":2754:2834   */\n      tag_36\n      jump\t// in\n    tag_78:\n        /* \"#utility.yul\":2736:2834   */\n      swap3\n      pop\n      swap3\n      pop\n        /* \"#utility.yul\":2531:2844   */\n      pop\n        /* \"#utility.yul\":1901:2851   */\n      swap3\n      swap6\n      swap2\n      swap5\n      pop\n      swap3\n      pop\n      jump\t// out\n        /* \"#utility.yul\":2857:3026   */\n    tag_37:\n        /* \"#utility.yul\":2941:2952   */\n      0x00\n        /* \"#utility.yul\":2975:2981   */\n      dup3\n        /* \"#utility.yul\":2970:2973   */\n      dup3\n        /* \"#utility.yul\":2963:2982   */\n      mstore\n        /* \"#utility.yul\":3015:3019   */\n      0x20\n        /* \"#utility.yul\":3010:3013   */\n      dup3\n        /* \"#utility.yul\":3006:3020   */\n      add\n        /* \"#utility.yul\":2991:3020   */\n      swap1\n      pop\n        /* \"#utility.yul\":2857:3026   */\n      swap3\n      swap2\n      pop\n      pop\n      jump\t// out\n        /* \"#utility.yul\":3032:3265   */\n    tag_38:\n        /* \"#utility.yul\":3172:3206   */\n      0x526563697069656e747320616e6420416d6f756e74732073686f756c64206861\n        /* \"#utility.yul\":3168:3169   */\n      0x00\n        /* \"#utility.yul\":3160:3166   */\n      dup3\n        /* \"#utility.yul\":3156:3170   */\n      add\n        /* \"#utility.yul\":3149:3207   */\n      mstore\n        /* \"#utility.yul\":3241:3257   */\n      0x76652073616d65206c656e677468000000000000000000000000000000000000\n        /* \"#utility.yul\":3236:3238   */\n      0x20\n        /* \"#utility.yul\":3228:3234   */\n      dup3\n        /* \"#utility.yul\":3224:3239   */\n      add\n        /* \"#utility.yul\":3217:3258   */\n      mstore\n        /* \"#utility.yul\":3032:3265   */\n      pop\n      jump\t// out\n        /* \"#utility.yul\":3271:3637   */\n    tag_39:\n        /* \"#utility.yul\":3413:3416   */\n      0x00\n        /* \"#utility.yul\":3434:3501   */\n      tag_82\n        /* \"#utility.yul\":3498:3500   */\n      0x2e\n        /* \"#utility.yul\":3493:3496   */\n      dup4\n        /* \"#utility.yul\":3434:3501   */\n      tag_37\n      jump\t// in\n    tag_82:\n        /* \"#utility.yul\":3427:3501   */\n      swap2\n      pop\n        /* \"#utility.yul\":3510:3603   */\n      tag_83\n        /* \"#utility.yul\":3599:3602   */\n      dup3\n        /* \"#utility.yul\":3510:3603   */\n      tag_38\n      jump\t// in\n    tag_83:\n        /* \"#utility.yul\":3628:3630   */\n      0x40\n        /* \"#utility.yul\":3623:3626   */\n      dup3\n        /* \"#utility.yul\":3619:3631   */\n      add\n        /* \"#utility.yul\":3612:3631   */\n      swap1\n      pop\n        /* \"#utility.yul\":3271:3637   */\n      swap2\n      swap1\n      pop\n      jump\t// out\n        /* \"#utility.yul\":3643:4062   */\n    tag_10:\n        /* \"#utility.yul\":3809:3813   */\n      0x00\n        /* \"#utility.yul\":3847:3849   */\n      0x20\n        /* \"#utility.yul\":3836:3845   */\n      dup3\n        /* \"#utility.yul\":3832:3850   */\n      add\n        /* \"#utility.yul\":3824:3850   */\n      swap1\n      pop\n        /* \"#utility.yul\":3896:3905   */\n      dup2\n        /* \"#utility.yul\":3890:3894   */\n      dup2\n        /* \"#utility.yul\":3886:3906   */\n      sub\n        /* \"#utility.yul\":3882:3883   */\n      0x00\n        /* \"#utility.yul\":3871:3880   */\n      dup4\n        /* \"#utility.yul\":3867:3884   */\n      add\n        /* \"#utility.yul\":3860:3907   */\n      mstore\n        /* \"#utility.yul\":3924:4055   */\n      tag_85\n        /* \"#utility.yul\":4050:4054   */\n      dup2\n        /* \"#utility.yul\":3924:4055   */\n      tag_39\n      jump\t// in\n    tag_85:\n        /* \"#utility.yul\":3916:4055   */\n      swap1\n      pop\n        /* \"#utility.yul\":3643:4062   */\n      swap2\n      swap1\n      pop\n      jump\t// out\n        /* \"#utility.yul\":4068:4248   */\n    tag_16:\n        /* \"#utility.yul\":4116:4193   */\n      0x4e487b7100000000000000000000000000000000000000000000000000000000\n        /* \"#utility.yul\":4113:4114   */\n      0x00\n        /* \"#utility.yul\":4106:4194   */\n      mstore\n        /* \"#utility.yul\":4213:4217   */\n      0x32\n        /* \"#utility.yul\":4210:4211   */\n      0x04\n        /* \"#utility.yul\":4203:4218   */\n      mstore\n        /* \"#utility.yul\":4237:4241   */\n      0x24\n        /* \"#utility.yul\":4234:4235   */\n      0x00\n        /* \"#utility.yul\":4227:4242   */\n      revert\n        /* \"#utility.yul\":4254:4380   */\n    tag_40:\n        /* \"#utility.yul\":4291:4298   */\n      0x00\n        /* \"#utility.yul\":4331:4373   */\n      0xffffffffffffffffffffffffffffffffffffffff\n        /* \"#utility.yul\":4324:4329   */\n      dup3\n        /* \"#utility.yul\":4320:4374   */\n      and\n        /* \"#utility.yul\":4309:4374   */\n      swap1\n      pop\n        /* \"#utility.yul\":4254:4380   */\n      swap2\n      swap1\n      pop\n      jump\t// out\n        /* \"#utility.yul\":4386:4490   */\n    tag_41:\n        /* \"#utility.yul\":4431:4438   */\n      0x00\n        /* \"#utility.yul\":4460:4484   */\n      tag_89\n        /* \"#utility.yul\":4478:4483   */\n      dup3\n        /* \"#utility.yul\":4460:4484   */\n      tag_40\n      jump\t// in\n    tag_89:\n        /* \"#utility.yul\":4449:4484   */\n      swap1\n      pop\n        /* \"#utility.yul\":4386:4490   */\n      swap2\n      swap1\n      pop\n      jump\t// out\n        /* \"#utility.yul\":4496:4634   */\n    tag_42:\n        /* \"#utility.yul\":4577:4609   */\n      tag_91\n        /* \"#utility.yul\":4603:4608   */\n      dup2\n        /* \"#utility.yul\":4577:4609   */\n      tag_41\n      jump\t// in\n    tag_91:\n        /* \"#utility.yul\":4570:4575   */\n      dup2\n        /* \"#utility.yul\":4567:4610   */\n      eq\n        /* \"#utility.yul\":4557:4628   */\n      tag_92\n      jumpi\n        /* \"#utility.yul\":4624:4625   */\n      0x00\n        /* \"#utility.yul\":4621:4622   */\n      dup1\n        /* \"#utility.yul\":4614:4626   */\n      revert\n        /* \"#utility.yul\":4557:4628   */\n    tag_92:\n        /* \"#utility.yul\":4496:4634   */\n      pop\n      jump\t// out\n        /* \"#utility.yul\":4640:4795   */\n    tag_43:\n        /* \"#utility.yul\":4694:4699   */\n      0x00\n        /* \"#utility.yul\":4732:4738   */\n      dup2\n        /* \"#utility.yul\":4719:4739   */\n      calldataload\n        /* \"#utility.yul\":4710:4739   */\n      swap1\n      pop\n        /* \"#utility.yul\":4748:4789   */\n      tag_94\n        /* \"#utility.yul\":4783:4788   */\n      dup2\n        /* \"#utility.yul\":4748:4789   */\n      tag_42\n      jump\t// in\n    tag_94:\n        /* \"#utility.yul\":4640:4795   */\n      swap3\n      swap2\n      pop\n      pop\n      jump\t// out\n        /* \"#utility.yul\":4801:5146   */\n    tag_18:\n        /* \"#utility.yul\":4868:4874   */\n      0x00\n        /* \"#utility.yul\":4917:4919   */\n      0x20\n        /* \"#utility.yul\":4905:4914   */\n      dup3\n        /* \"#utility.yul\":4896:4903   */\n      dup5\n        /* \"#utility.yul\":4892:4915   */\n      sub\n        /* \"#utility.yul\":4888:4920   */\n      slt\n        /* \"#utility.yul\":4885:5004   */\n      iszero\n      tag_96\n      jumpi\n        /* \"#utility.yul\":4923:5002   */\n      tag_97\n      tag_30\n      jump\t// in\n    tag_97:\n        /* \"#utility.yul\":4885:5004   */\n    tag_96:\n        /* \"#utility.yul\":5043:5044   */\n      0x00\n        /* \"#utility.yul\":5068:5129   */\n      tag_98\n        /* \"#utility.yul\":5121:5128   */\n      dup5\n        /* \"#utility.yul\":5112:5118   */\n      dup3\n        /* \"#utility.yul\":5101:5110   */\n      dup6\n        /* \"#utility.yul\":5097:5119   */\n      add\n        /* \"#utility.yul\":5068:5129   */\n      tag_43\n      jump\t// in\n    tag_98:\n        /* \"#utility.yul\":5058:5129   */\n      swap2\n      pop\n        /* \"#utility.yul\":5014:5139   */\n      pop\n        /* \"#utility.yul\":4801:5146   */\n      swap3\n      swap2\n      pop\n      pop\n      jump\t// out\n        /* \"#utility.yul\":5152:5299   */\n    tag_44:\n        /* \"#utility.yul\":5253:5264   */\n      0x00\n        /* \"#utility.yul\":5290:5293   */\n      dup2\n        /* \"#utility.yul\":5275:5293   */\n      swap1\n      pop\n        /* \"#utility.yul\":5152:5299   */\n      swap3\n      swap2\n      pop\n      pop\n      jump\t// out\n        /* \"#utility.yul\":5305:5419   */\n    tag_45:\n      pop\n      jump\t// out\n        /* \"#utility.yul\":5425:5823   */\n    tag_46:\n        /* \"#utility.yul\":5584:5587   */\n      0x00\n        /* \"#utility.yul\":5605:5688   */\n      tag_102\n        /* \"#utility.yul\":5686:5687   */\n      0x00\n        /* \"#utility.yul\":5681:5684   */\n      dup4\n        /* \"#utility.yul\":5605:5688   */\n      tag_44\n      jump\t// in\n    tag_102:\n        /* \"#utility.yul\":5598:5688   */\n      swap2\n      pop\n        /* \"#utility.yul\":5697:5790   */\n      tag_103\n        /* \"#utility.yul\":5786:5789   */\n      dup3\n        /* \"#utility.yul\":5697:5790   */\n      tag_45\n      jump\t// in\n    tag_103:\n        /* \"#utility.yul\":5815:5816   */\n      0x00\n        /* \"#utility.yul\":5810:5813   */\n      dup3\n        /* \"#utility.yul\":5806:5817   */\n      add\n        /* \"#utility.yul\":5799:5817   */\n      swap1\n      pop\n        /* \"#utility.yul\":5425:5823   */\n      swap2\n      swap1\n      pop\n      jump\t// out\n        /* \"#utility.yul\":5829:6208   */\n    tag_22:\n        /* \"#utility.yul\":6013:6016   */\n      0x00\n        /* \"#utility.yul\":6035:6182   */\n      tag_105\n        /* \"#utility.yul\":6178:6181   */\n      dup3\n        /* \"#utility.yul\":6035:6182   */\n      tag_46\n      jump\t// in\n    tag_105:\n        /* \"#utility.yul\":6028:6182   */\n      swap2\n      pop\n        /* \"#utility.yul\":6199:6202   */\n      dup2\n        /* \"#utility.yul\":6192:6202   */\n      swap1\n      pop\n        /* \"#utility.yul\":5829:6208   */\n      swap2\n      swap1\n      pop\n      jump\t// out\n        /* \"#utility.yul\":6214:6379   */\n    tag_47:\n        /* \"#utility.yul\":6354:6371   */\n      0x5472616e73666572206661696c65640000000000000000000000000000000000\n        /* \"#utility.yul\":6350:6351   */\n      0x00\n        /* \"#utility.yul\":6342:6348   */\n      dup3\n        /* \"#utility.yul\":6338:6352   */\n      add\n        /* \"#utility.yul\":6331:6372   */\n      mstore\n        /* \"#utility.yul\":6214:6379   */\n      pop\n      jump\t// out\n        /* \"#utility.yul\":6385:6751   */\n    tag_48:\n        /* \"#utility.yul\":6527:6530   */\n      0x00\n        /* \"#utility.yul\":6548:6615   */\n      tag_108\n        /* \"#utility.yul\":6612:6614   */\n      0x0f\n        /* \"#utility.yul\":6607:6610   */\n      dup4\n        /* \"#utility.yul\":6548:6615   */\n      tag_37\n      jump\t// in\n    tag_108:\n        /* \"#utility.yul\":6541:6615   */\n      swap2\n      pop\n        /* \"#utility.yul\":6624:6717   */\n      tag_109\n        /* \"#utility.yul\":6713:6716   */\n      dup3\n        /* \"#utility.yul\":6624:6717   */\n      tag_47\n      jump\t// in\n    tag_109:\n        /* \"#utility.yul\":6742:6744   */\n      0x20\n        /* \"#utility.yul\":6737:6740   */\n      dup3\n        /* \"#utility.yul\":6733:6745   */\n      add\n        /* \"#utility.yul\":6726:6745   */\n      swap1\n      pop\n        /* \"#utility.yul\":6385:6751   */\n      swap2\n      swap1\n      pop\n      jump\t// out\n        /* \"#utility.yul\":6757:7176   */\n    tag_28:\n        /* \"#utility.yul\":6923:6927   */\n      0x00\n        /* \"#utility.yul\":6961:6963   */\n      0x20\n        /* \"#utility.yul\":6950:6959   */\n      dup3\n        /* \"#utility.yul\":6946:6964   */\n      add\n        /* \"#utility.yul\":6938:6964   */\n      swap1\n      pop\n        /* \"#utility.yul\":7010:7019   */\n      dup2\n        /* \"#utility.yul\":7004:7008   */\n      dup2\n        /* \"#utility.yul\":7000:7020   */\n      sub\n        /* \"#utility.yul\":6996:6997   */\n      0x00\n        /* \"#utility.yul\":6985:6994   */\n      dup4\n        /* \"#utility.yul\":6981:6998   */\n      add\n        /* \"#utility.yul\":6974:7021   */\n      mstore\n        /* \"#utility.yul\":7038:7169   */\n      tag_111\n        /* \"#utility.yul\":7164:7168   */\n      dup2\n        /* \"#utility.yul\":7038:7169   */\n      tag_48\n      jump\t// in\n    tag_111:\n        /* \"#utility.yul\":7030:7169   */\n      swap1\n      pop\n        /* \"#utility.yul\":6757:7176   */\n      swap2\n      swap1\n      pop\n      jump\t// out\n\n    auxdata: 0xa26469706673582212204ce2f0f75a4811707e3d6d51e46f2410974c492561e13140b4585823b6ad0f2c64736f6c63430008190033\n}\n",
				"bytecode": {
					"linkReferences": {},
					"object": "6080604052348015600e575f80fd5b506104fa8061001c5f395ff3fe60806040526004361061001d575f3560e01c8063a645ff5f14610021575b5f80fd5b61003b6004803603810190610036919061024d565b61003d565b005b818190508484905014610085576040517f08c379a000000000000000000000000000000000000000000000000000000000815260040161007c9061034b565b60405180910390fd5b5f5b84849050811015610188575f8585838181106100a6576100a5610369565b5b90506020020160208101906100bb91906103f0565b73ffffffffffffffffffffffffffffffffffffffff168484848181106100e4576100e3610369565b5b905060200201356040516100f790610448565b5f6040518083038185875af1925050503d805f8114610131576040519150601f19603f3d011682016040523d82523d5f602084013e610136565b606091505b505090508061017a576040517f08c379a0000000000000000000000000000000000000000000000000000000008152600401610171906104a6565b60405180910390fd5b508080600101915050610087565b5050505050565b5f80fd5b5f80fd5b5f80fd5b5f80fd5b5f80fd5b5f8083601f8401126101b8576101b7610197565b5b8235905067ffffffffffffffff8111156101d5576101d461019b565b5b6020830191508360208202830111156101f1576101f061019f565b5b9250929050565b5f8083601f84011261020d5761020c610197565b5b8235905067ffffffffffffffff81111561022a5761022961019b565b5b6020830191508360208202830111156102465761024561019f565b5b9250929050565b5f805f80604085870312156102655761026461018f565b5b5f85013567ffffffffffffffff81111561028257610281610193565b5b61028e878288016101a3565b9450945050602085013567ffffffffffffffff8111156102b1576102b0610193565b5b6102bd878288016101f8565b925092505092959194509250565b5f82825260208201905092915050565b7f526563697069656e747320616e6420416d6f756e74732073686f756c642068615f8201527f76652073616d65206c656e677468000000000000000000000000000000000000602082015250565b5f610335602e836102cb565b9150610340826102db565b604082019050919050565b5f6020820190508181035f83015261036281610329565b9050919050565b7f4e487b71000000000000000000000000000000000000000000000000000000005f52603260045260245ffd5b5f73ffffffffffffffffffffffffffffffffffffffff82169050919050565b5f6103bf82610396565b9050919050565b6103cf816103b5565b81146103d9575f80fd5b50565b5f813590506103ea816103c6565b92915050565b5f602082840312156104055761040461018f565b5b5f610412848285016103dc565b91505092915050565b5f81905092915050565b50565b5f6104335f8361041b565b915061043e82610425565b5f82019050919050565b5f61045282610428565b9150819050919050565b7f5472616e73666572206661696c656400000000000000000000000000000000005f82015250565b5f610490600f836102cb565b915061049b8261045c565b602082019050919050565b5f6020820190508181035f8301526104bd81610484565b905091905056fea26469706673582212204ce2f0f75a4811707e3d6d51e46f2410974c492561e13140b4585823b6ad0f2c64736f6c63430008190033",
					"opcodes": "PUSH1 0x80 PUSH1 0x40 MSTORE CALLVALUE DUP1 ISZERO PUSH1 0xE JUMPI PUSH0 DUP1 REVERT JUMPDEST POP PUSH2 0x4FA DUP1 PUSH2 0x1C PUSH0 CODECOPY PUSH0 RETURN INVALID PUSH1 0x80 PUSH1 0x40 MSTORE PUSH1 0x4 CALLDATASIZE LT PUSH2 0x1D JUMPI PUSH0 CALLDATALOAD PUSH1 0xE0 SHR DUP1 PUSH4 0xA645FF5F EQ PUSH2 0x21 JUMPI JUMPDEST PUSH0 DUP1 REVERT JUMPDEST PUSH2 0x3B PUSH1 0x4 DUP1 CALLDATASIZE SUB DUP2 ADD SWAP1 PUSH2 0x36 SWAP2 SWAP1 PUSH2 0x24D JUMP JUMPDEST PUSH2 0x3D JUMP JUMPDEST STOP JUMPDEST DUP2 DUP2 SWAP1 POP DUP5 DUP5 SWAP1 POP EQ PUSH2 0x85 JUMPI PUSH1 0x40 MLOAD PUSH32 0x8C379A000000000000000000000000000000000000000000000000000000000 DUP2 MSTORE PUSH1 0x4 ADD PUSH2 0x7C SWAP1 PUSH2 0x34B JUMP JUMPDEST PUSH1 0x40 MLOAD DUP1 SWAP2 SUB SWAP1 REVERT JUMPDEST PUSH0 JUMPDEST DUP5 DUP5 SWAP1 POP DUP2 LT ISZERO PUSH2 0x188 JUMPI PUSH0 DUP6 DUP6 DUP4 DUP2 DUP2 LT PUSH2 0xA6 JUMPI PUSH2 0xA5 PUSH2 0x369 JUMP JUMPDEST JUMPDEST SWAP1 POP PUSH1 0x20 MUL ADD PUSH1 0x20 DUP2 ADD SWAP1 PUSH2 0xBB SWAP2 SWAP1 PUSH2 0x3F0 JUMP JUMPDEST PUSH20 0xFFFFFFFFFFFFFFFFFFFFFFFFFFFFFFFFFFFFFFFF AND DUP5 DUP5 DUP5 DUP2 DUP2 LT PUSH2 0xE4 JUMPI PUSH2 0xE3 PUSH2 0x369 JUMP JUMPDEST JUMPDEST SWAP1 POP PUSH1 0x20 MUL ADD CALLDATALOAD PUSH1 0x40 MLOAD PUSH2 0xF7 SWAP1 PUSH2 0x448 JUMP JUMPDEST PUSH0 PUSH1 0x40 MLOAD DUP1 DUP4 SUB DUP2 DUP6 DUP8 GAS CALL SWAP3 POP POP POP RETURNDATASIZE DUP1 PUSH0 DUP2 EQ PUSH2 0x131 JUMPI PUSH1 0x40 MLOAD SWAP2 POP PUSH1 0x1F NOT PUSH1 0x3F RETURNDATASIZE ADD AND DUP3 ADD PUSH1 0x40 MSTORE RETURNDATASIZE DUP3 MSTORE RETURNDATASIZE PUSH0 PUSH1 0x20 DUP5 ADD RETURNDATACOPY PUSH2 0x136 JUMP JUMPDEST PUSH1 0x60 SWAP2 POP JUMPDEST POP POP SWAP1 POP DUP1 PUSH2 0x17A JUMPI PUSH1 0x40 MLOAD PUSH32 0x8C379A000000000000000000000000000000000000000000000000000000000 DUP2 MSTORE PUSH1 0x4 ADD PUSH2 0x171 SWAP1 PUSH2 0x4A6 JUMP JUMPDEST PUSH1 0x40 MLOAD DUP1 SWAP2 SUB SWAP1 REVERT JUMPDEST POP DUP1 DUP1 PUSH1 0x1 ADD SWAP2 POP POP PUSH2 0x87 JUMP JUMPDEST POP POP POP POP POP JUMP JUMPDEST PUSH0 DUP1 REVERT JUMPDEST PUSH0 DUP1 REVERT JUMPDEST PUSH0 DUP1 REVERT JUMPDEST PUSH0 DUP1 REVERT JUMPDEST PUSH0 DUP1 REVERT JUMPDEST PUSH0 DUP1 DUP4 PUSH1 0x1F DUP5 ADD SLT PUSH2 0x1B8 JUMPI PUSH2 0x1B7 PUSH2 0x197 JUMP JUMPDEST JUMPDEST DUP3 CALLDATALOAD SWAP1 POP PUSH8 0xFFFFFFFFFFFFFFFF DUP2 GT ISZERO PUSH2 0x1D5 JUMPI PUSH2 0x1D4 PUSH2 0x19B JUMP JUMPDEST JUMPDEST PUSH1 0x20 DUP4 ADD SWAP2 POP DUP4 PUSH1 0x20 DUP3 MUL DUP4 ADD GT ISZERO PUSH2 0x1F1 JUMPI PUSH2 0x1F0 PUSH2 0x19F JUMP JUMPDEST JUMPDEST SWAP3 POP SWAP3 SWAP1 POP JUMP JUMPDEST PUSH0 DUP1 DUP4 PUSH1 0x1F DUP5 ADD SLT PUSH2 0x20D JUMPI PUSH2 0x20C PUSH2 0x197 JUMP JUMPDEST JUMPDEST DUP3 CALLDATALOAD SWAP1 POP PUSH8 0xFFFFFFFFFFFFFFFF DUP2 GT ISZERO PUSH2 0x22A JUMPI PUSH2 0x229 PUSH2 0x19B JUMP JUMPDEST JUMPDEST PUSH1 0x20 DUP4 ADD SWAP2 POP DUP4 PUSH1 0x20 DUP3 MUL DUP4 ADD GT ISZERO PUSH2 0x246 JUMPI PUSH2 0x245 PUSH2 0x19F JUMP JUMPDEST JUMPDEST SWAP3 POP SWAP3 SWAP1 POP JUMP JUMPDEST PUSH0 DUP1 PUSH0 DUP1 PUSH1 0x40 DUP6 DUP8 SUB SLT ISZERO PUSH2 0x265 JUMPI PUSH2 0x264 PUSH2 0x18F JUMP JUMPDEST JUMPDEST PUSH0 DUP6 ADD CALLDATALOAD PUSH8 0xFFFFFFFFFFFFFFFF DUP2 GT ISZERO PUSH2 0x282 JUMPI PUSH2 0x281 PUSH2 0x193 JUMP JUMPDEST JUMPDEST PUSH2 0x28E DUP8 DUP3 DUP9 ADD PUSH2 0x1A3 JUMP JUMPDEST SWAP5 POP SWAP5 POP POP PUSH1 0x20 DUP6 ADD CALLDATALOAD PUSH8 0xFFFFFFFFFFFFFFFF DUP2 GT ISZERO PUSH2 0x2B1 JUMPI PUSH2 0x2B0 PUSH2 0x193 JUMP JUMPDEST JUMPDEST PUSH2 0x2BD DUP8 DUP3 DUP9 ADD PUSH2 0x1F8 JUMP JUMPDEST SWAP3 POP SWAP3 POP POP SWAP3 SWAP6 SWAP2 SWAP5 POP SWAP3 POP JUMP JUMPDEST PUSH0 DUP3 DUP3 MSTORE PUSH1 0x20 DUP3 ADD SWAP1 POP SWAP3 SWAP2 POP POP JUMP JUMPDEST PUSH32 0x526563697069656E747320616E6420416D6F756E74732073686F756C64206861 PUSH0 DUP3 ADD MSTORE PUSH32 0x76652073616D65206C656E677468000000000000000000000000000000000000 PUSH1 0x20 DUP3 ADD MSTORE POP JUMP JUMPDEST PUSH0 PUSH2 0x335 PUSH1 0x2E DUP4 PUSH2 0x2CB JUMP JUMPDEST SWAP2 POP PUSH2 0x340 DUP3 PUSH2 0x2DB JUMP JUMPDEST PUSH1 0x40 DUP3 ADD SWAP1 POP SWAP2 SWAP1 POP JUMP JUMPDEST PUSH0 PUSH1 0x20 DUP3 ADD SWAP1 POP DUP2 DUP2 SUB PUSH0 DUP4 ADD MSTORE PUSH2 0x362 DUP2 PUSH2 0x329 JUMP JUMPDEST SWAP1 POP SWAP2 SWAP1 POP JUMP JUMPDEST PUSH32 0x4E487B7100000000000000000000000000000000000000000000000000000000 PUSH0 MSTORE PUSH1 0x32 PUSH1 0x4 MSTORE PUSH1 0x24 PUSH0 REVERT JUMPDEST PUSH0 PUSH20 0xFFFFFFFFFFFFFFFFFFFFFFFFFFFFFFFFFFFFFFFF DUP3 AND SWAP1 POP SWAP2 SWAP1 POP JUMP JUMPDEST PUSH0 PUSH2 0x3BF DUP3 PUSH2 0x396 JUMP JUMPDEST SWAP1 POP SWAP2 SWAP1 POP JUMP JUMPDEST PUSH2 0x3CF DUP2 PUSH2 0x3B5 JUMP JUMPDEST DUP2 EQ PUSH2 0x3D9 JUMPI PUSH0 DUP1 REVERT JUMPDEST POP JUMP JUMPDEST PUSH0 DUP2 CALLDATALOAD SWAP1 POP PUSH2 0x3EA DUP2 PUSH2 0x3C6 JUMP JUMPDEST SWAP3 SWAP2 POP POP JUMP JUMPDEST PUSH0 PUSH1 0x20 DUP3 DUP5 SUB SLT ISZERO PUSH2 0x405 JUMPI PUSH2 0x404 PUSH2 0x18F JUMP JUMPDEST JUMPDEST PUSH0 PUSH2 0x412 DUP5 DUP3 DUP6 ADD PUSH2 0x3DC JUMP JUMPDEST SWAP2 POP POP SWAP3 SWAP2 POP POP JUMP JUMPDEST PUSH0 DUP2 SWAP1 POP SWAP3 SWAP2 POP POP JUMP JUMPDEST POP JUMP JUMPDEST PUSH0 PUSH2 0x433 PUSH0 DUP4 PUSH2 0x41B JUMP JUMPDEST SWAP2 POP PUSH2 0x43E DUP3 PUSH2 0x425 JUMP JUMPDEST PUSH0 DUP3 ADD SWAP1 POP SWAP2 SWAP1 POP JUMP JUMPDEST PUSH0 PUSH2 0x452 DUP3 PUSH2 0x428 JUMP JUMPDEST SWAP2 POP DUP2 SWAP1 POP SWAP2 SWAP1 POP JUMP JUMPDEST PUSH32 0x5472616E73666572206661696C65640000000000000000000000000000000000 PUSH0 DUP3 ADD MSTORE POP JUMP JUMPDEST PUSH0 PUSH2 0x490 PUSH1 0xF DUP4 PUSH2 0x2CB JUMP JUMPDEST SWAP2 POP PUSH2 0x49B DUP3 PUSH2 0x45C JUMP JUMPDEST PUSH1 0x20 DUP3 ADD SWAP1 POP SWAP2 SWAP1 POP JUMP JUMPDEST PUSH0 PUSH1 0x20 DUP3 ADD SWAP1 POP DUP2 DUP2 SUB PUSH0 DUP4 ADD MSTORE PUSH2 0x4BD DUP2 PUSH2 0x484 JUMP JUMPDEST SWAP1 POP SWAP2 SWAP1 POP JUMP INVALID LOG2 PUSH5 0x6970667358 0x22 SLT KECCAK256 0x4C 0xE2 CREATE 0xF7 GAS BASEFEE GT PUSH17 0x7E3D6D51E46F2410974C492561E13140B4 PC PC 0x23 0xB6 0xAD 0xF 0x2C PUSH5 0x736F6C6343 STOP ADDMOD NOT STOP CALLER "
				},
				"gasEstimates": {
					"creation": {
						"codeDepositCost": "254800",
						"executionCost": "292",
						"totalCost": "255092"
					},
					"external": {
						"send(address[],uint256[])": "infinite"
					}
				},
				"methodIdentifiers": {
					"send(address[],uint256[])": "a645ff5f"
				}
			},
			"storageLayout": {
				"storage": [],
				"types": null
			},
			"userdoc": {
				"kind": "user",
				"methods": {},
				"version": 1
			}
		}
	}
}